:100000002030840025300A200A128A11452F040668
:0E0010008001840A0406031D072864000034E2
:100E3200831203132408230422042104031D222FF6
:100E4200232F242F422FFF3083120313A107FF30D9
:100E520003110318013E031DA207FF3003110318FB
:100E6200013E031DA307FF3003110318013E031DBA
:100E7200A4072408230422042104031D412F422F26
:100E8200242F031383120800FF30831603138600F6
:100E92008701FF30850006309F0083120710A001F2
:100EA200871007118711831203130618592F5A2F1F
:100EB200602FA001A00A871407118711772F8312D0
:100EC20003138618652F662F6C2F0230A00087103F
:100ED20007158711772F831203130619712F722FAB
:100EE200772F0330A0008710071187158312031391
:100EF200051C7C2F7D2FFB2F2003031D812F822FAA
:100F0200A62F831203138714071587155030A100EB
:100F1200C330A2000030A3000030A4000A128A11DC
:100F220019270A128A118710071187115030A10060
:100F3200C330A2000030A3000030A4000A128A11BC
:100F420019270A128A11822FFB2F831203132008FA
:100F5200023A031DAD2FAE2FCE2F831203130714B7
:100F62005030A100C330A2000030A3000030A40022
:100F72000A128A1119270A128A1107105030A10089
:100F8200C330A2000030A3000030A4000A128A116C
:100F920019270A128A11AE2FFB2F8312031320087E
:100FA200033A031DD52FD62FFB2F83120313871469
:100FB2000715871507145030A100C330A200003076
:100FC200A3000030A4000A128A1119270A128A11FA
:100FD20087100711871107105030A100C330A200FB
:100FE2000030A3000030A4000A128A1119270A1245
:0E0FF2008A11D62F542F83010A128A1100286B
:02400E00323F3F
:00000001FF
