:060000000A128A11FA2E1B
:100DF40083010A128A112E2F73087204710470047D
:100E0400031D052F062F082F2D2F2D2F0130F40041
:100E14000030F5000030F6000030F7007408F002EE
:100E24007508031C750F172F182FF1027608031C81
:100E3400760F1D2F1E2FF2027708031C770F232F26
:100E4400242FF3027308720471047004031D2B2F02
:100E54002C2F082F2D2F0800031000300318013009
:100E6400F900FF308316031386008701FF308500E5
:100E740006309F0083120313071003100030031879
:100E84000130F900871007118711482F83120313CB
:100E940006184D2F4E2F552FF9010314F90D871401
:100EA400071187116F2F8618582F592F612F023081
:100EB400F8007808F9008710071587116F2F0619B5
:100EC400642F652F6F2F0330F8007808F90087101E
:100ED400071187156F2F6F2F6F2F051C722F732F1C
:100EE400482F7908013A031D782F792FA02F8312F8
:100EF40003138714071587150030F3000030F20040
:100F0400C330F1005030F0000A128A11FE260A1292
:100F14008A11831203138710071187110030F3001D
:100F24000030F200C330F1005030F0000A128A1190
:100F3400FE260A128A11792F792F482F7908023A4E
:100F4400031DA52FA62FC92F8312031307140030E6
:100F5400F3000030F200C330F1005030F0000A1208
:100F64008A11FE260A128A11831203130710003015
:100F7400F3000030F200C330F1005030F0000A12E8
:100F84008A11FE260A128A11A62FA62F482F790845
:100F9400033A031DCE2FCF2F482F83120313871438
:100FA4000715871507140030F3000030F200C33032
:100FB400F1005030F0000A128A11FE260A128A113A
:100FC4008312031387100711871107100030F300F1
:100FD4000030F200C330F1005030F0000A128A11E0
:100FE400FE260A128A11CF2FCF2F482F482F482FC1
:0C0FF400482F482F482F0A128A110028AD
:02400E00323F3F
:00000001FF
